:0400000085EF0AF08E
:1008000000486F72613A20253032753A25303275D2
:100810003A2530327500414C41524D4120414354FC
:1008200049564144412100416C61726D6120483A52
:10083000202530327500416C61726D61204D3A2087
:100840002530327500000F0EC11292809282928480
:1008500093943EEC08F0800E92EC09F0F2EC0AF072
:10086000FAEC0AF080A037EF04F039EF04F088EFDB
:1008700005F080B03EEF04F040EF04F039EF04F0F3
:10088000820E3F6EDE0EE82EFED73F2EFCD7FAEC2E
:100890000AF0010E4824016EE86AD8B0E82A48BE82
:1008A000E806026E000E046E030E036EB6EC06F050
:1008B0000150486E88EF05F04D0E046E4C0E056E2B
:1008C0004B0E066EF8EC08F0800E2A6E010E2B6EB1
:1008D0004D502C6E2D6A2CBE2D064C502E6E2F6A5C
:1008E0002EBE2F064B50306E316A30BE31062AECD8
:1008F0000AF0010E046E010EFBEC07F0800E056E8F
:10090000066A7FEC08F047504D18D8A48AEF04F02F
:100910008CEF04F032EF04F046504C18D8A493EF5B
:1009200004F095EF04F032EF04F0010E046E020EB5
:10093000FBEC07F0160E056E0550D8A4080E066EE7
:100940007FEC08F08A840D0E406EAF0E3F6EB60E3F
:10095000E82EFED73F2EFCD7402EFAD700D08A943F
:100960000D0E406EAF0E3F6EB60EE82EFED73F2E38
:10097000FCD7402EFAD700D032EF04F0800E2A6E5A
:10098000270E2B6E47502C6E2D6A2CBE2D062AEC9E
:100990000AF0010E046E010EFBEC07F0800E056EEE
:1009A000066A7FEC08F080A2D8EF04F0DAEF04F0DA
:1009B000F9EF04F080B2DFEF04F0E1EF04F0DAEFDA
:1009C00004F0820E3F6EDE0EE82EFED73F2EFCD7DF
:1009D000010E4724016EE86AD8B0E82A47BEE8064F
:1009E000026E000E046E180E036EB6EC06F0015097
:1009F000476E80A4FEEF04F000EF05F032EF04F044
:100A000080B405EF05F007EF05F000EF05F0820E6A
:100A10003F6EDE0EE82EFED73F2EFCD7170E472482
:100A2000016EE86AD8B0E82A47BEE806026E000EFA
:100A3000046E180E036EB6EC06F00150476E32EFEE
:100A400004F0800E2A6E360E2B6E46502C6E2D6AE8
:100A50002CBE2D062AEC0AF0010E046E010EFBECF2
:100A600007F0800E056E066A7FEC08F080A23BEF6F
:100A700005F03DEF05F05CEF05F080B242EF05F0C8
:100A800044EF05F03DEF05F0820E3F6EDE0EE82EDE
:100A9000FED73F2EFCD7010E4624016EE86AD8B07F
:100AA000E82A46BEE806026E000E046E3C0E036E97
:100AB000B6EC06F00150466E80A461EF05F063EFDE
:100AC00005F032EF04F080B468EF05F06AEF05F04E
:100AD00063EF05F0820E3F6EDE0EE82EFED73F2E4E
:100AE000FCD73B0E4624016EE86AD8B0E82A46BE21
:100AF000E806026E000E046E3C0E036EB6EC06F0C5
:100B00000150466E32EF04F0000E486E32EF04F0F2
:100B10004850000AD8B45CEF04F0010AD8B4BEEF24
:100B200004F0030AD8B421EF05F084EF05F000EFDC
:100B300000F01E50D96EDA6ADFCFF6FF080EF76EAE
:100B40000800F550250AD8A4A8EF05F0AAEF05F093
:100B500034EF06F01E50D96EDA6ADF2A000E426EBC
:100B6000000E416E41C045F043684468000E246E9B
:100B7000D4EF05F045821E50D96EDA6ADF2AD4EF31
:100B800005F0010E246ED4EF05F01E50D96EDA6A1E
:100B9000DFCFF6FF080EF76E0800F550300AD8B424
:100BA000BAEF05F0C1EF05F02450D8B4DAEF05F044
:100BB000DCEF05F0C5EF05F01EC007F01FC008F020
:100BC00063EC07F007C041F008C042F042BEEDEF11
:100BD00005F0EBEF05F0F2EF05F04580416C421EA9
:100BE000D8B0422A1E50D96EDA6ADF50256E25C071
:100BF000F6FF080EF76E0800F550750AD8A403EF4B
:100C000006F005EF06F02EEF06F01F50D96EDA6AF7
:100C1000020EDF26DF5CD96EDA6ADECF20F0DECF8F
:100C200021F01E50D96EDA6A2528DF6E22EF06F019
:100C30001DC015F020C016F021C017F046EC06F0DC
:100C400045EF06F025C0F6FF080EF76E0800F550D8
:100C5000750AD8B418EF06F02EEF06F01E50D96EC4
:100C6000DA6ADF2A45EF06F01E50D96EDA6ADFCF66
:100C7000F6FF080EF76E0800F550016E026A1DC0FF
:100C800003F00EEC07F02EEF06F01200010E186EC6
:100C900041C019F042C01AF0000E1C6E1F0E1B6EF0
:100CA000000E00017F6F7CEF06F01B06D8A01C062B
:100CB0001B50600FD96EDA6A16C001F017C002F03F
:100CC000000E046E0A0E036E32EC09F00150300F74
:100CD000DF6E000E186E1906D8A01A0616C001F0B5
:100CE00017C002F0000E046E0A0E036EBEEC08F090
:100CF00001C016F002C017F01B501C10D8B483EFCF
:100D000006F085EF06F0AAEF06F016501710D8A4EB
:100D10008CEF06F08EEF06F055EF06F01850D8A4D1
:100D200094EF06F096EF06F055EF06F01ABEA1EF2D
:100D300006F01A5008E11904D8A0A1EF06F0A3EFBD
:100D400006F0AAEF06F045B2A8EF06F0AAEF06F00B
:100D500055EF06F015C00EF01B50600F0F6E19C056
:100D600010F01AC011F0B6EC07F01200000E066E7B
:100D700002BEBFEF06F0BDEF06F0C5EF06F0016C56
:100D8000021ED8B0022A010E066E04BECCEF06F099
:100D9000CAEF06F0D0EF06F0036C041ED8B0042AA8
:100DA00003500410D8B4D7EF06F0D9EF06F0FDEFEA
:100DB00006F0010E056EE1EF06F0D890033604361A
:100DC000052A04AEE6EF06F0E8EF06F0DDEF06F0E8
:100DD0000350015C04500258D8A0F1EF06F0F3EF85
:100DE00006F0F7EF06F00350015E0450025AD89067
:100DF00004320332052EE8EF06F00650D8B403EFB4
:100E000007F005EF07F009EF07F0016C021ED8B0FC
:100E1000022A01C001F002C002F012000350D8B44F
:100E200014EF07F016EF07F01EEF07F00350D8A4F9
:100E30001CEF07F01EEF07F023EF07F0015001EC65
:100E40000BF062EF07F00350D96EDA6A0A0ED9266A
:100E5000DE50DE10D8B42FEF07F031EF07F04AEF85
:100E600007F00350D96EDA6A0A0ED9260350E16EF4
:100E7000E26A030EE126DE50E65CE650800A086E68
:100E8000DE50800A0858D8B048EF07F04AEF07F064
:100E900062EF07F00350D96EDA6A030ED926DF50ED
:100EA000046E0350D96EDA6ADF500424D96EDA6A10
:100EB00001C0DFFF0350D96EDA6A030ED926DE2A9D
:100EC000000EDD221200000E0B6E000E0A6E07509F
:100ED000D96EDA6ADFCFF6FF080EF76E0800F5501C
:100EE0002A0AD8A476EF07F078EF07F09EEF07F014
:100EF0000750D96EDA6ADF2A0850D96EDA6A020E14
:100F0000DF26DF5CD96EDA6ADECF0AF0DECF0BF0C7
:100F1000B1EF07F00AC001F00BC002F0000E046E42
:100F20000A0E036E72EC0AF0095001240A6E000EDC
:100F300002200B6E0750D96EDA6ADF2A0750D96E8D
:100F4000DA6ADFCFF6FF080EF76E0800F550D00F13
:100F5000096E090E0964AFEF07F0B1EF07F08AEFF1
:100F600007F00AC007F00BC008F0120045A0BBEF65
:100F700007F0BDEF07F0C3EF07F00FC009F00EC098
:100F80000AF0D2EC09F011BECAEF07F0C8EF07F083
:100F9000CEEF07F0000E116E000E106E000E146EF4
:100FA000000E136EDEEF07F0000E026E200E016ED3
:100FB0000EC003F00EEC07F0134A142A1050135C15
:100FC0001450800A126E1150800A1258D8A0EBEF0C
:100FD00007F0EDEF07F0D4EF07F045B0F2EF07F0C0
:100FE000F4EF07F0FAEF07F00FC009F00EC00AF0B7
:100FF000D2EC09F01200086E0804D8A402EF08F041
:1010000004EF08F009EF08F004507F0F076E31EF8E
:1010100008F0020E0818D8A410EF08F012EF08F03C
:1010200017EF08F00450BF0F076E31EF08F0030E02
:101030000818D8A41EEF08F020EF08F025EF08F0FC
:101040000450930F076E31EF08F0040E0818D8A46F
:101050002CEF08F02EEF08F031EF08F00450D30F1A
:10106000076E07380F0B056E07500F0B066E055005
:1010700096EC0AF0065096EC0AF0120095949596BC
:101080009598959A959C959E000E64EC09F0820EB9
:10109000046EDE0EE82EFED7042EFCD7030E96EC6F
:1010A0000AF0210E046E760EE82EFED7042EFCD731
:1010B00000D0030E96EC0AF0480E046E6C0EE82E7B
:1010C000FED7042EFCD700D0030E96EC0AF0020ED9
:1010D00096EC0AF0020E96EC0AF0080E96EC0AF076
:1010E000000E96EC0AF00C0E96EC0AF0000E96EC50
:1010F0000AF0060E96EC0AF0FAEC0AF01200000E66
:101100000A6E000E096E9FEF08F009500524076E65
:101110000A500620086E07C0F6FF08C0F7FFF86AFD
:10112000070EF76403D00800F55005D0F6CFE1FFB5
:10113000F7CFE2FFE7500EEC0AF0094A0A2A0950FD
:101140000524076E0A500620086E07C0F6FF08C087
:10115000F7FFF86A070EF76403D00800F55005D0D2
:10116000F6CFE1FFF7CFE2FFE7500009D8A4BBEFCD
:1011700008F0BDEF08F085EF08F01200000E066ED3
:10118000000E056E03500410D8B4C9EF08F0CBEF81
:1011900008F0F3EF08F0010E076ED3EF08F0D890D7
:1011A00003360436072A04AED8EF08F0DAEF08F069
:1011B000CFEF08F0D890053606360350015C045096
:1011C0000258D8A0E6EF08F0E8EF08F0EDEF08F0DD
:1011D0000350015E0450025A0580D8900432033255
:1011E000072EDAEF08F005C001F006C002F0120089
:1011F0000650D96EDA6A000E5BEC0AF07F0BC9EC80
:101200000AF0DF6E0550D96EDA6A010E5BEC0AF067
:101210007F0BC9EC0AF0DF6E0450D96EDA6A020E59
:101220005BEC0AF03F0BC9EC0AF0DF6E0450D96E9C
:10123000DA6A040EDF641FEF09F021EF09F028EFEE
:1012400009F00450D96EDA6A050EDF5E31EF09F05D
:101250000450D96EDA6A0450E16EE26AE750130F67
:10126000DF6E120003500410D8B439EF09F03BEFE1
:1012700009F05FEF09F0010E056E43EF09F0D89019
:1012800003360436052A04AE48EF09F04AEF09F0A8
:101290003FEF09F00350015C04500258D8A053EF0F
:1012A00009F055EF09F059EF09F00350015E0450C1
:1012B000025AD89004320332052E4AEF09F001C0D9
:1012C00001F002C002F01200016E01A06AEF09F005
:1012D0006CEF09F06FEF09F08C8870EF09F08C98D3
:1012E00001A275EF09F077EF09F07AEF09F08C8A27
:1012F0007BEF09F08C9A01A480EF09F082EF09F0EE
:1013000085EF09F08C8C86EF09F08C9C01A68BEFA1
:1013100009F08DEF09F090EF09F08C8E91EF09F054
:101320008C9E1200016E9382938001C0C7FF280E2D
:10133000C66E000EC56E800E0118D8A4A2EF09F08B
:10134000A4EF09F0A8EF09F0770EC86EB2EF09F02C
:101350000150D8A4AEEF09F0B0EF09F0B2EF09F0F8
:101360001D0EC86E120027C029F0BFEF09F026C07D
:101370001DF0290E1E6E28C01FF099EC05F029C043
:10138000F6FF080EF76E0800F5500009D8A4CBEF61
:1013900009F0CDEF09F0B7EF09F0000E276E000E4F
:1013A000266E1200000E0D6E000E0C6EE1EF09F0BD
:1013B0000BC001F0026A0AC003F00EEC07F00C4A01
:1013C0000D2A09500C24D96EDA6ADF500B6E0B50CF
:1013D000D8A4EDEF09F0EFEF09F0D8EF09F0120013
:1013E000066E059E3F0E0616DEEC0AF0D00EA6EC49
:1013F0000AF0000EA6EC0AF0055044EC0AF0A6EC48
:101400000AF0045044EC0AF0A6EC0AF0065044EC52
:101410000AF0A6EC0AF0D4EC0AF01200046E0450B4
:101420000F0B026E0450F00B036E8C8403380F0B0D
:1014300064EC09F08C86420EE82EFED700D08C9624
:10144000025064EC09F08C86420EE82EFED700D0E4
:101450008C9612002C0E326E2AC033F0000E376EBE
:10146000000E366E000E3E6E000E3D6E330E266E82
:101470002BC027F0320E286EB3EC09F02A50362428
:10148000D96EDA6ADF6A1200016E01C003F0000E45
:10149000026E090E03644FEF0AF051EF0AF057EFA6
:1014A0000AF00A0E035E100E022649EF0AF00350FE
:1014B000022602501200026EDEEC0AF0D00EA6ECFC
:1014C0000AF00250A6EC0AF0E8EC0AF0D10EA6EC05
:1014D0000AF0B3EC0AF0036EBEEC0AF0D4EC0AF0AA
:1014E0000350120001500302F3CF05F0F4CF06F0D1
:1014F00001500402F350062602500302F350062660
:1015000005C001F006C002F0120000EE60F0340EDB
:10151000EE6AE806FDE100EE41F00D0EEE6AE80627
:10152000FDE1000EF86E000123EF04F0036E8C94D1
:10153000035064EC09F08C861A0E026EF80EE82E49
:10154000FED7022EFCD700D08C961200016E01C08F
:10155000C9FF9EA6AEEF0AF0B0EF0AF0A9EF0AF0BD
:101560009E96C5501200C5869EA6B9EF0AF0BBEF45
:101570000AF0B4EF0AF09E96C9501200C58AC588D9
:101580009EA6C5EF0AF0C7EF0AF0C0EF0AF09E96DC
:101590001200026E02380F0B0A0DF3CF01F0025059
:1015A0000F0B012601501200C5849EA6DAEF0AF047
:1015B000DCEF0AF0D5EF0AF09E961200C5809EA6D9
:1015C000E4EF0AF0E6EF0AF0DFEF0AF09E96120071
:1015D000C5829EA6EEEF0AF0F0EF0AF0E9EF0AF0FE
:1015E0009E961200000E046E000E056E150EF0ECB5
:1015F00009F01200000E96EC0AF0010E96EC0AF0CB
:0416000012001200C2
:020000040020DA
:08000000FFFFFFFFFFFFFFFF00
:020000040030CA
:0E000000040C191EFF8181FF0FC00FE00F409E
:00000001FF
